:020000040800F2
:1000000088060020650100086D04000869040008E6
:1000100000000000000000000000000000000000E0
:100020000000000000000000000000000D050008B6
:100030000000000000000000E9040008E9050008D5
:100040009501000895010008950100089501000838
:100050009501000895010008950100089501000828
:100060009501000895010008950100089501000818
:100070009501000895010008950100089501000808
:1000800095010008950100089501000895010008F8
:1000900095010008950100089501000895010008E8
:1000A00095010008950100089501000895010008D8
:1000B00095010008950100089501000895010008C8
:1000C00000F002F800F03EF80CA030C80838241800
:1000D0002D18A246671EAB4654465D46AC4201D180
:1000E00000F030F87E460F3E0FCCB6460126334274
:1000F00000D0FB1AA246AB46334318475C0700000A
:100100007C070000103A02D378C878C1FAD85207A9
:1001100001D330C830C101D504680C6070470000BD
:100120000023002400250026103A01D378C1FBD813
:10013000520700D330C100D50B6070471FB51FBDFB
:1001400010B510BD00F0F8F81146FFF7F7FF00F00A
:10015000FDFA00F010F903B4FFF7F2FF03BC00F062
:1001600017F900000F4880F308880F480168090E4E
:100170000E4A914205D10E480E4901600E480F49C2
:1001800001600F4880470F480047FEE7FEE7FEE7A3
:10019000FEE7FEE7FEE700000B480C490C4A0D4B5A
:1001A0007047000088060020040000001F000000C7
:1001B0001810024001000000000001400000000093
:1001C00051060008C10000088800002088060020B1
:1001D0008802002088020020002203098B422CD3D1
:1001E000030A8B4211D300239C464EE003460B4387
:1001F0003CD4002243088B4231D303098B421CD3E9
:10020000030A8B4201D394463FE0C3098B4201D3DA
:10021000CB01C01A524183098B4201D38B01C01A12
:10022000524143098B4201D34B01C01A5241030989
:100230008B4201D30B01C01A5241C3088B4201D338
:10024000CB00C01A524183088B4201D38B00C01AE5
:10025000524143088B4201D34B00C01A5241411A0C
:1002600000D201465241104670475DE0CA0F00D0EF
:100270004942031000D34042534000229C460309E8
:100280008B422DD3030A8B4212D3FC22890112BA6E
:10029000030A8B420CD3890192118B4208D3890146
:1002A00092118B4204D389013AD0921100E089095E
:1002B000C3098B4201D3CB01C01A524183098B423F
:1002C00001D38B01C01A524143098B4201D34B0128
:1002D000C01A524103098B4201D30B01C01A52418B
:1002E000C3088B4201D3CB00C01A524183088B4212
:1002F00001D38B00C01A5241D9D243088B4201D39B
:100300004B00C01A5241411A00D201466346524185
:100310005B10104601D34042002B00D54942704784
:1003200063465B1000D3404201B50020C046C04682
:1003300002BD704770477047754600F025F8AE461D
:10034000050069465346C008C000854618B020B570
:10035000FFF722FF60BC00274908B6460026C0C54B
:10036000C0C5C0C5C0C5C0C5C0C5C0C5C0C5403D6D
:1003700049008D46704710B50446C046C046204629
:10038000FFF7E9FE10BD000000487047280000207C
:1003900001491820ABBEFEE7260002007047F0B509
:1003A0000A4600210023002400BF3DE001258D40C6
:1003B0002B4615681D402C469C4234D11579012DE1
:1003C00002D01579022D16D185684F000326BE4054
:1003D000B543856055794E00B540866835438560E4
:1003E000858801268E40B5438580858896798E4024
:1003F000B6B23543858005684F000326BE40B5433D
:10040000056015794E00B540066835430560C5683E
:100410004F000326BE40B543C560D5794E00B540B8
:10042000C6683543C560491C1029BFD3F0BD0246DC
:100430000020138A0B40002B01D0012000E0002097
:1004400070470000044901600021017101214171E0
:1004500000218171C1717047FFFF0000002A01D0A7
:10046000816100E00185704700BFFEE77047000032
:1004700010B5002819DA1A4A03071B0F083B9B081E
:100480009B00D2588307DC0EFF23A3409A438B07BF
:100490001B0E8407E40EA3401A43114B0407240FDC
:1004A000083CA408A4001A5118E00E4A03231B02BA
:1004B000D21883089B00D2588307DC0EFF23A34089
:1004C0009A438B071B0E8407E40EA3401A43054B87
:1004D000032424021B198408A4001A5110BD000033
:1004E0001CED00E000E100E070470000002905D0AD
:1004F000054A52690243044B5A6104E0024A5269B8
:100500008243014B5A61704700100240704700005F
:100510000CB50020019000903148006801210904C9
:1005200008432F49086000BF2D4800680121490495
:10053000084000900198401C01900098002804D1C8
:100540000521090301988842EED125480068012160
:1005500049040840002802D00120009001E000205A
:1005600000900098012839D111201E4908601C48CC
:1005700040681B4948600846406848600846406833
:100580007F21C90388431649486008464068112105
:100590000904084312494860084600680121090619
:1005A00008430F49086000BF0D4800680121490653
:1005B00008400028F8D00A484068800880000849B0
:1005C000486008464068022108430549486000BF6A
:1005D000034840680C2108400828F9D10CBD0000F0
:1005E000001002400020024002480068401C0149FF
:1005F000086070472400002010B57D21C900104814
:100600000068FFF7E9FD0446601E0E49884201D9E3
:1006100001200CE0601E0C4948610321081FFFF710
:1006200027FF002008498861072008610020002872
:1006300001D000BFFEE700200449086010BD0000A3
:1006400000000020FFFFFF0000E000E02400002089
:1006500010B51B4800680121084319490860084685
:10066000406818490840164948600846006816491D
:10067000084013490860084600680121890488433E
:100680000F490860084640683F21090488430C4927
:1006900048600846C06A00090001C8620846006B4D
:1006A000FF2154318843064908630846406B4008DF
:1006B0004000486300208860FFF72AFF10BD00005B
:1006C000001002400CB8FF08FFFFF6FE30B474467D
:1006D000641E2578641CAB4204D3635D5B00E318A1
:1006E00030BC18471D46F8E710B50121052040042D
:1006F000FFF7FCFE10BD00000148006870470000D5
:10070000240000201CB56846FFF79CFE20200090C6
:1007100001216846017103214171002181716946FF
:100720000920C006FFF73BFE012040030090002196
:1007300068460171032141710121C1716946024876
:10074000FFF72DFE1CBD000000080048FFF7CCFF9E
:10075000FFF752FFFFF7D6FF57E02C480078030061
:10076000FFF7B4FF060408171F3D4C52012027492C
:10077000087049E0012149032548FFF758FE254943
:10078000087008460078002802D102201F4908702E
:100790003AE0FFF7B1FF2049086003201B490870C9
:1007A00032E0012149031A48FFF741FE1949087058
:1007B00008460078002803D000201449087023E080
:1007C000FFF79AFF15490860084600681249096852
:1007D000401A0A2802D904200C49087014E00121AB
:1007E00049030B48FFF723FE0A49087008460078C2
:1007F000002802D005200549087005E000F010F837
:1008000000200249087000BF00BFA6E71C000020BE
:10081000000800481E0000201400002018000020DE
:1008200010B50C480078002801D1012000E000201C
:100830000849087008460078002801D0012000E02F
:10084000002004490870024620210920C006FFF755
:1008500005FE10BD1F0000207808000800000020E1
:100860002800000004010008A0080008280000205B
:100870006006000020010008006CDC02000000009F
:100880000000000001020304060708090000000040
:100890000000000000000000000000000000000058
:04000005080000C12E
:00000001FF
